{
  "abi": [
    {
      "type": "constructor",
      "inputs": [
        {
          "name": "wormhole_",
          "type": "address",
          "internalType": "address"
        },
        {
          "name": "chainId_",
          "type": "uint16",
          "internalType": "uint16"
        },
        {
          "name": "wormholeFinality_",
          "type": "uint8",
          "internalType": "uint8"
        },
        {
          "name": "feePrecision_",
          "type": "uint32",
          "internalType": "uint32"
        },
        {
          "name": "relayerFeePercentage_",
          "type": "uint32",
          "internalType": "uint32"
        }
      ],
      "stateMutability": "nonpayable"
    },
    {
      "type": "function",
      "name": "calculateRelayerFee",
      "inputs": [
        {
          "name": "amount",
          "type": "uint256",
          "internalType": "uint256"
        }
      ],
      "outputs": [
        {
          "name": "",
          "type": "uint256",
          "internalType": "uint256"
        }
      ],
      "stateMutability": "view"
    },
    {
      "type": "function",
      "name": "chainId",
      "inputs": [],
      "outputs": [
        {
          "name": "",
          "type": "uint16",
          "internalType": "uint16"
        }
      ],
      "stateMutability": "view"
    },
    {
      "type": "function",
      "name": "decodeMessage",
      "inputs": [
        {
          "name": "encodedMessage",
          "type": "bytes",
          "internalType": "bytes"
        }
      ],
      "outputs": [
        {
          "name": "parsedMessage",
          "type": "tuple",
          "internalType": "struct WhatTokenBridgeStructs.TransferMessage",
          "components": [
            {
              "name": "payloadID",
              "type": "uint8",
              "internalType": "uint8"
            },
            {
              "name": "recipient",
              "type": "bytes32",
              "internalType": "bytes32"
            },
            {
              "name": "amount",
              "type": "uint256",
              "internalType": "uint256"
            }
          ]
        }
      ],
      "stateMutability": "pure"
    },
    {
      "type": "function",
      "name": "encodeMessage",
      "inputs": [
        {
          "name": "parsedMessage",
          "type": "tuple",
          "internalType": "struct WhatTokenBridgeStructs.TransferMessage",
          "components": [
            {
              "name": "payloadID",
              "type": "uint8",
              "internalType": "uint8"
            },
            {
              "name": "recipient",
              "type": "bytes32",
              "internalType": "bytes32"
            },
            {
              "name": "amount",
              "type": "uint256",
              "internalType": "uint256"
            }
          ]
        }
      ],
      "outputs": [
        {
          "name": "encodedMessage",
          "type": "bytes",
          "internalType": "bytes"
        }
      ],
      "stateMutability": "pure"
    },
    {
      "type": "function",
      "name": "feePrecision",
      "inputs": [],
      "outputs": [
        {
          "name": "",
          "type": "uint32",
          "internalType": "uint32"
        }
      ],
      "stateMutability": "view"
    },
    {
      "type": "function",
      "name": "getReceivedMessage",
      "inputs": [
        {
          "name": "hash",
          "type": "bytes32",
          "internalType": "bytes32"
        }
      ],
      "outputs": [
        {
          "name": "recipient",
          "type": "address",
          "internalType": "address"
        },
        {
          "name": "amount",
          "type": "uint256",
          "internalType": "uint256"
        }
      ],
      "stateMutability": "view"
    },
    {
      "type": "function",
      "name": "getRegisteredEmitter",
      "inputs": [
        {
          "name": "emitterChainId",
          "type": "uint16",
          "internalType": "uint16"
        }
      ],
      "outputs": [
        {
          "name": "",
          "type": "bytes32",
          "internalType": "bytes32"
        }
      ],
      "stateMutability": "view"
    },
    {
      "type": "function",
      "name": "isMessageConsumed",
      "inputs": [
        {
          "name": "hash",
          "type": "bytes32",
          "internalType": "bytes32"
        }
      ],
      "outputs": [
        {
          "name": "",
          "type": "bool",
          "internalType": "bool"
        }
      ],
      "stateMutability": "view"
    },
    {
      "type": "function",
      "name": "isPaused",
      "inputs": [],
      "outputs": [
        {
          "name": "",
          "type": "bool",
          "internalType": "bool"
        }
      ],
      "stateMutability": "view"
    },
    {
      "type": "function",
      "name": "isWhitelistEnabled",
      "inputs": [],
      "outputs": [
        {
          "name": "",
          "type": "bool",
          "internalType": "bool"
        }
      ],
      "stateMutability": "view"
    },
    {
      "type": "function",
      "name": "isWhitelisted",
      "inputs": [
        {
          "name": "account",
          "type": "address",
          "internalType": "address"
        }
      ],
      "outputs": [
        {
          "name": "",
          "type": "bool",
          "internalType": "bool"
        }
      ],
      "stateMutability": "view"
    },
    {
      "type": "function",
      "name": "lockAndSend",
      "inputs": [
        {
          "name": "recipient",
          "type": "bytes32",
          "internalType": "bytes32"
        },
        {
          "name": "amount",
          "type": "uint256",
          "internalType": "uint256"
        }
      ],
      "outputs": [
        {
          "name": "messageSequence",
          "type": "uint64",
          "internalType": "uint64"
        }
      ],
      "stateMutability": "payable"
    },
    {
      "type": "function",
      "name": "owner",
      "inputs": [],
      "outputs": [
        {
          "name": "",
          "type": "address",
          "internalType": "address"
        }
      ],
      "stateMutability": "view"
    },
    {
      "type": "function",
      "name": "redeemAndUnlock",
      "inputs": [
        {
          "name": "encodedMessage",
          "type": "bytes",
          "internalType": "bytes"
        }
      ],
      "outputs": [],
      "stateMutability": "nonpayable"
    },
    {
      "type": "function",
      "name": "registerEmitter",
      "inputs": [
        {
          "name": "emitterChainId",
          "type": "uint16",
          "internalType": "uint16"
        },
        {
          "name": "emitterAddress",
          "type": "bytes32",
          "internalType": "bytes32"
        }
      ],
      "outputs": [],
      "stateMutability": "nonpayable"
    },
    {
      "type": "function",
      "name": "relayerFeePercentage",
      "inputs": [],
      "outputs": [
        {
          "name": "",
          "type": "uint32",
          "internalType": "uint32"
        }
      ],
      "stateMutability": "view"
    },
    {
      "type": "function",
      "name": "setWhatTokenAddress",
      "inputs": [
        {
          "name": "whatToken",
          "type": "address",
          "internalType": "address"
        }
      ],
      "outputs": [],
      "stateMutability": "nonpayable"
    },
    {
      "type": "function",
      "name": "whatToken",
      "inputs": [],
      "outputs": [
        {
          "name": "",
          "type": "address",
          "internalType": "address"
        }
      ],
      "stateMutability": "view"
    },
    {
      "type": "function",
      "name": "wormhole",
      "inputs": [],
      "outputs": [
        {
          "name": "",
          "type": "address",
          "internalType": "contract IWormhole"
        }
      ],
      "stateMutability": "view"
    },
    {
      "type": "function",
      "name": "wormholeFinality",
      "inputs": [],
      "outputs": [
        {
          "name": "",
          "type": "uint8",
          "internalType": "uint8"
        }
      ],
      "stateMutability": "view"
    },
    {
      "type": "error",
      "name": "FailedVaaParseAndVerification",
      "inputs": [
        {
          "name": "reason",
          "type": "string",
          "internalType": "string"
        }
      ]
    },
    {
      "type": "error",
      "name": "InsufficientContractBalance",
      "inputs": []
    },
    {
      "type": "error",
      "name": "InvalidAmount",
      "inputs": []
    },
    {
      "type": "error",
      "name": "InvalidEVMAddress",
      "inputs": []
    },
    {
      "type": "error",
      "name": "InvalidMessageLength",
      "inputs": []
    },
    {
      "type": "error",
      "name": "InvalidWormholeFeeAmount",
      "inputs": []
    },
    {
      "type": "error",
      "name": "RecipientZeroAddress",
      "inputs": []
    },
    {
      "type": "error",
      "name": "TransferFailed",
      "inputs": []
    },
    {
      "type": "error",
      "name": "VaaAlreadyClaimed",
      "inputs": []
    },
    {
      "type": "error",
      "name": "WhatTokenZeroAddress",
      "inputs": []
    },
    {
      "type": "error",
      "name": "WormholeZeroAddress",
      "inputs": []
    },
    {
      "type": "error",
      "name": "WrongChainId",
      "inputs": []
    },
    {
      "type": "error",
      "name": "WrongEmitterAddress",
      "inputs": []
    },
    {
      "type": "error",
      "name": "WrongEmitterChainId",
      "inputs": []
    },
    {
      "type": "error",
      "name": "WrongWormholeFinality",
      "inputs": []
    }
  ],
  "bytecode": {
    "object": "0x60806040523480156200001157600080fd5b50604051620019b2380380620019b283398101604081905262000034916200016b565b60016007556001600160a01b0385166200006157604051630a99537b60e01b815260040160405180910390fd5b8361ffff1660000362000086576040516217e1ef60ea1b815260040160405180910390fd5b8260ff16600003620000ab576040516391f32d0b60e01b815260040160405180910390fd5b600080546001600160a01b03191633179055600180546001600160a01b0319166001600160a01b0387161790556001805461ffff60a01b1916600160a01b61ffff8716021790556001805460ff60b01b1916600160b01b60ff8616021790556002805463ffffffff60a01b1916600160a01b63ffffffff8516021790556002805463ffffffff60c01b1916600160c01b63ffffffff8416021790555050505050620001f9565b805163ffffffff811681146200016657600080fd5b919050565b600080600080600060a086880312156200018457600080fd5b85516001600160a01b03811681146200019c57600080fd5b602087015190955061ffff81168114620001b557600080fd5b604087015190945060ff81168114620001cd57600080fd5b9250620001dd6060870162000151565b9150620001ed6080870162000151565b90509295509295909350565b6117a980620002096000396000f3fe60806040526004361061011f5760003560e01c806363c09358116100a05780639a8a0592116100645780639a8a05921461041d578063b187bd261461044b578063bca4b0fa1461046a578063bfb3c0101461048a578063dc404a0e146104aa57600080fd5b806363c093581461036b57806384acd1bb1461039d57806385e66df4146103bb5780638da5cb5b146103dd5780638fe33b9f146103fb57600080fd5b806335ff1e28116100e757806335ff1e281461025e5780633af32abf14610291578063470feb87146102ca5780635df52e23146102fa578063634d45b21461032657600080fd5b80630520557b14610124578063184d69ab146101555780631b6e4ab6146101805780631e9b61af146101f257806324816abb1461021f575b600080fd5b34801561013057600080fd5b50600154600160b01b900460ff1660405160ff90911681526020015b60405180910390f35b34801561016157600080fd5b50600154600160c01b900460ff165b604051901515815260200161014c565b34801561018c57600080fd5b506101d361019b3660046110d6565b600090815260056020908152604091829020825180840190935280546001600160a01b03168084526001909101549290910182905291565b604080516001600160a01b03909316835260208301919091520161014c565b3480156101fe57600080fd5b5061021261020d366004611192565b6104ca565b60405161014c9190611244565b34801561022b57600080fd5b5061025061023a366004611267565b61ffff1660009081526004602052604090205490565b60405190815260200161014c565b34801561026a57600080fd5b50600254600160a01b900463ffffffff165b60405163ffffffff909116815260200161014c565b34801561029d57600080fd5b506101706102ac366004611284565b6001600160a01b031660009081526003602052604090205460ff1690565b3480156102d657600080fd5b506101706102e53660046110d6565b60009081526006602052604090205460ff1690565b61030d6103083660046112ad565b610517565b60405167ffffffffffffffff909116815260200161014c565b34801561033257600080fd5b506103466103413660046112f7565b6106e3565b60408051825160ff16815260208084015190820152918101519082015260600161014c565b34801561037757600080fd5b506002546001600160a01b03165b6040516001600160a01b03909116815260200161014c565b3480156103a957600080fd5b506001546001600160a01b0316610385565b3480156103c757600080fd5b50600254600160c01b900463ffffffff1661027c565b3480156103e957600080fd5b506000546001600160a01b0316610385565b34801561040757600080fd5b5061041b6104163660046112f7565b6107ef565b005b34801561042957600080fd5b50600154600160a01b900461ffff1660405161ffff909116815260200161014c565b34801561045757600080fd5b50600154600160b81b900460ff16610170565b34801561047657600080fd5b5061041b610485366004611377565b6109da565b34801561049657600080fd5b5061041b6104a5366004611284565b610aca565b3480156104b657600080fd5b506102506104c53660046110d6565b610b4b565b8051602080830151604080850151905160f89490941b6001600160f81b03191692840192909252602183015260418201526060906061016040516020818303038152906040529050919050565b6000610521610b82565b8261053f576040516384bc540160e01b815260040160405180910390fd5b816000036105605760405163162908e360e11b815260040160405180910390fd5b60006105746001546001600160a01b031690565b90506000816001600160a01b0316631a90a2196040518163ffffffff1660e01b8152600401602060405180830381865afa1580156105b6573d6000803e3d6000fd5b505050506040513d601f19601f820116820180604052508101906105da91906113a3565b9050803410156105fc576040516235db2760e81b815260040160405180910390fd5b60006106196106136002546001600160a01b031690565b86610bdb565b6040805160608101825260018152602081018990529081018290529091506000610642826104ca565b9050846001600160a01b031663b19a437e8560008461066b60015460ff600160b01b9091041690565b6040518563ffffffff1660e01b8152600401610689939291906113bc565b60206040518083038185885af11580156106a7573d6000803e3d6000fd5b50505050506040513d601f19601f820116820180604052508101906106cc919061140b565b955050505050506106dd6001600755565b92915050565b604080516060810182526000808252602082018190529181018290529061070a8382610c11565b60ff168083526001146107585760405162461bcd60e51b81526020600482015260116024820152701a5b9d985b1a59081c185e5b1bd8591251607a1b60448201526064015b60405180910390fd5b61076360018261143c565b905061076f8382610c71565b602080840191909152610782908261143c565b905061078e8382610cd4565b604083015261079e60208261143c565b9050825181146107e95760405162461bcd60e51b81526020600482015260166024820152750d2dcecc2d8d2c840dacae6e6c2ceca40d8cadccee8d60531b604482015260640161074f565b50919050565b60008060006108066001546001600160a01b031690565b6001600160a01b031663c0fd8bde856040518263ffffffff1660e01b81526004016108319190611244565b600060405180830381865afa15801561084e573d6000803e3d6000fd5b505050506040513d6000823e601f3d908101601f191682016040526108769190810190611598565b92509250925081819061089c5760405162461bcd60e51b815260040161074f9190611244565b506108a683610d2d565b6108c357604051636b99980160e11b815260040160405180910390fd5b60006108d28460e001516106e3565b90506108f284610140015160009081526006602052604090205460ff1690565b156109105760405163032a925360e41b815260040160405180910390fd5b600061091f8260200151610d59565b6040830151909150600061093282610b4b565b905060006109486002546001600160a01b031690565b9050816000036109625761095d818585610d88565b610981565b61096d813384610d88565b610981818561097c85876116f0565b610d88565b61014088015160408087015160009283526005602090815282842080546001600160a01b0319166001600160a01b038a16178155600190810192909255600690529120805460ff19169091179055505050505050505050565b336109ed6000546001600160a01b031690565b6001600160a01b031614610a3a5760405162461bcd60e51b815260206004820152601460248201527331b0b63632b9103737ba103a34329037bbb732b960611b604482015260640161074f565b8161ffff16600003610a5f5760405163eae0fb0960e01b815260040160405180910390fd5b600154600160a01b900461ffff1661ffff168261ffff1603610a945760405163eae0fb0960e01b815260040160405180910390fd5b80610ab257604051630a99537b60e01b815260040160405180910390fd5b61ffff91909116600090815260046020526040902055565b33610add6000546001600160a01b031690565b6001600160a01b031614610b2a5760405162461bcd60e51b815260206004820152601460248201527331b0b63632b9103737ba103a34329037bbb732b960611b604482015260640161074f565b600280546001600160a01b0319166001600160a01b03831617905550565b50565b60025460009063ffffffff600160a01b8204811691600160c01b900416610b789063ffffffff1684611703565b6106dd919061171a565b600260075403610bd45760405162461bcd60e51b815260206004820152601f60248201527f5265656e7472616e637947756172643a207265656e7472616e742063616c6c00604482015260640161074f565b6002600755565b600080610be784610df0565b9050610bf584333086610ea3565b80610bff85610df0565b610c0991906116f0565b949350505050565b600081835111610c595760405162461bcd60e51b8152602060048201526013602482015272746f55696e74385f6f75744f66426f756e647360681b604482015260640161074f565b6000610c6660018461143c565b909301519392505050565b600080610c7f60208461143c565b90508084511015610cca5760405162461bcd60e51b8152602060048201526015602482015274746f427974657333325f6f75744f66426f756e647360581b604482015260640161074f565b9092015192915050565b600080610ce260208461143c565b90508084511015610cca5760405162461bcd60e51b8152602060048201526015602482015274746f55696e743235365f6f75744f66426f756e647360581b604482015260640161074f565b60008160800151610d52836060015161ffff1660009081526004602052604090205490565b1492915050565b60006001600160a01b0319821615610d845760405163e3a39ea160e01b815260040160405180910390fd5b5090565b6040516001600160a01b038316602482015260448101829052610deb90849063a9059cbb60e01b906064015b60408051601f198184030181529190526020810180516001600160e01b03166001600160e01b031990931692909217909152610ee1565b505050565b604080513060248083019190915282518083039091018152604490910182526020810180516001600160e01b03166370a0823160e01b179052905160009182916001600160a01b03851691610e449161173c565b600060405180830381855afa9150503d8060008114610e7f576040519150601f19603f3d011682016040523d82523d6000602084013e610e84565b606091505b5091505080806020019051810190610e9c91906113a3565b9392505050565b6040516001600160a01b0380851660248301528316604482015260648101829052610edb9085906323b872dd60e01b90608401610db4565b50505050565b6000610f36826040518060400160405280602081526020017f5361666545524332303a206c6f772d6c6576656c2063616c6c206661696c6564815250856001600160a01b0316610fb39092919063ffffffff16565b805190915015610deb5780806020019051810190610f549190611758565b610deb5760405162461bcd60e51b815260206004820152602a60248201527f5361666545524332303a204552433230206f7065726174696f6e20646964206e6044820152691bdd081cdd58d8d9595960b21b606482015260840161074f565b6060610c09848460008585600080866001600160a01b03168587604051610fda919061173c565b60006040518083038185875af1925050503d8060008114611017576040519150601f19603f3d011682016040523d82523d6000602084013e61101c565b606091505b509150915061102d87838387611038565b979650505050505050565b606083156110a75782516000036110a0576001600160a01b0385163b6110a05760405162461bcd60e51b815260206004820152601d60248201527f416464726573733a2063616c6c20746f206e6f6e2d636f6e7472616374000000604482015260640161074f565b5081610c09565b610c0983838151156110bc5781518083602001fd5b8060405162461bcd60e51b815260040161074f9190611244565b6000602082840312156110e857600080fd5b5035919050565b634e487b7160e01b600052604160045260246000fd5b6040516080810167ffffffffffffffff81118282101715611128576111286110ef565b60405290565b604051610160810167ffffffffffffffff81118282101715611128576111286110ef565b604051601f8201601f1916810167ffffffffffffffff8111828210171561117b5761117b6110ef565b604052919050565b60ff81168114610b4857600080fd5b6000606082840312156111a457600080fd5b6040516060810181811067ffffffffffffffff821117156111c7576111c76110ef565b60405282356111d581611183565b8152602083810135908201526040928301359281019290925250919050565b60005b8381101561120f5781810151838201526020016111f7565b50506000910152565b600081518084526112308160208601602086016111f4565b601f01601f19169290920160200192915050565b602081526000610e9c6020830184611218565b61ffff81168114610b4857600080fd5b60006020828403121561127957600080fd5b8135610e9c81611257565b60006020828403121561129657600080fd5b81356001600160a01b0381168114610e9c57600080fd5b600080604083850312156112c057600080fd5b50508035926020909101359150565b600067ffffffffffffffff8211156112e9576112e96110ef565b50601f01601f191660200190565b60006020828403121561130957600080fd5b813567ffffffffffffffff81111561132057600080fd5b8201601f8101841361133157600080fd5b803561134461133f826112cf565b611152565b81815285602083850101111561135957600080fd5b81602084016020830137600091810160200191909152949350505050565b6000806040838503121561138a57600080fd5b823561139581611257565b946020939093013593505050565b6000602082840312156113b557600080fd5b5051919050565b63ffffffff841681526060602082015260006113db6060830185611218565b905060ff83166040830152949350505050565b805167ffffffffffffffff8116811461140657600080fd5b919050565b60006020828403121561141d57600080fd5b610e9c826113ee565b634e487b7160e01b600052601160045260246000fd5b808201808211156106dd576106dd611426565b805161140681611183565b805163ffffffff8116811461140657600080fd5b805161140681611257565b600082601f83011261148a57600080fd5b815161149861133f826112cf565b8181528460208386010111156114ad57600080fd5b610c098260208301602087016111f4565b600082601f8301126114cf57600080fd5b8151602067ffffffffffffffff8211156114eb576114eb6110ef565b6114f9818360051b01611152565b82815260079290921b8401810191818101908684111561151857600080fd5b8286015b8481101561157d57608081890312156115355760008081fd5b61153d611105565b81518152848201518582015260408083015161155881611183565b9082015260608281015161156b81611183565b9082015283529183019160800161151c565b509695505050505050565b8051801515811461140657600080fd5b6000806000606084860312156115ad57600080fd5b835167ffffffffffffffff808211156115c557600080fd5b9085019061016082880312156115da57600080fd5b6115e261112e565b6115eb8361144f565b81526115f96020840161145a565b602082015261160a6040840161145a565b604082015261161b6060840161146e565b60608201526080830151608082015261163660a084016113ee565b60a082015261164760c0840161144f565b60c082015260e08301518281111561165e57600080fd5b61166a89828601611479565b60e08301525061010061167e81850161145a565b90820152610120838101518381111561169657600080fd5b6116a28a8287016114be565b9183019190915250610140838101519082015294506116c360208701611588565b935060408601519150808211156116d957600080fd5b506116e686828701611479565b9150509250925092565b818103818111156106dd576106dd611426565b80820281158282048414176106dd576106dd611426565b60008261173757634e487b7160e01b600052601260045260246000fd5b500490565b6000825161174e8184602087016111f4565b9190910192915050565b60006020828403121561176a57600080fd5b610e9c8261158856fea2646970667358221220c492acc7b35123532c13213b5e3d6fca77437f9e915b1cf72da484589d4131c564736f6c63430008130033",
    "linkReferences": {}
  },
  "methodIdentifiers": {
    "calculateRelayerFee(uint256)": "dc404a0e",
    "chainId()": "9a8a0592",
    "decodeMessage(bytes)": "634d45b2",
    "encodeMessage((uint8,bytes32,uint256))": "1e9b61af",
    "feePrecision()": "35ff1e28",
    "getReceivedMessage(bytes32)": "1b6e4ab6",
    "getRegisteredEmitter(uint16)": "24816abb",
    "isMessageConsumed(bytes32)": "470feb87",
    "isPaused()": "b187bd26",
    "isWhitelistEnabled()": "184d69ab",
    "isWhitelisted(address)": "3af32abf",
    "lockAndSend(bytes32,uint256)": "5df52e23",
    "owner()": "8da5cb5b",
    "redeemAndUnlock(bytes)": "8fe33b9f",
    "registerEmitter(uint16,bytes32)": "bca4b0fa",
    "relayerFeePercentage()": "85e66df4",
    "setWhatTokenAddress(address)": "bfb3c010",
    "whatToken()": "63c09358",
    "wormhole()": "84acd1bb",
    "wormholeFinality()": "0520557b"
  },
  "id": 32
}