{
  "abi": [
    {
      "type": "constructor",
      "inputs": [
        {
          "name": "wormhole_",
          "type": "address",
          "internalType": "address"
        },
        {
          "name": "chainId_",
          "type": "uint16",
          "internalType": "uint16"
        },
        {
          "name": "wormholeFinality_",
          "type": "uint8",
          "internalType": "uint8"
        },
        {
          "name": "feePrecision_",
          "type": "uint32",
          "internalType": "uint32"
        },
        {
          "name": "relayerFeePercentage_",
          "type": "uint32",
          "internalType": "uint32"
        }
      ],
      "stateMutability": "nonpayable"
    },
    {
      "type": "function",
      "name": "calculateRelayerFee",
      "inputs": [
        {
          "name": "amount",
          "type": "uint256",
          "internalType": "uint256"
        }
      ],
      "outputs": [
        {
          "name": "",
          "type": "uint256",
          "internalType": "uint256"
        }
      ],
      "stateMutability": "view"
    },
    {
      "type": "function",
      "name": "chainId",
      "inputs": [],
      "outputs": [
        {
          "name": "",
          "type": "uint16",
          "internalType": "uint16"
        }
      ],
      "stateMutability": "view"
    },
    {
      "type": "function",
      "name": "decodeMessage",
      "inputs": [
        {
          "name": "encodedMessage",
          "type": "bytes",
          "internalType": "bytes"
        }
      ],
      "outputs": [
        {
          "name": "parsedMessage",
          "type": "tuple",
          "internalType": "struct WhatTokenBridgeStructs.TransferMessage",
          "components": [
            {
              "name": "payloadID",
              "type": "uint8",
              "internalType": "uint8"
            },
            {
              "name": "recipient",
              "type": "bytes32",
              "internalType": "bytes32"
            },
            {
              "name": "amount",
              "type": "uint256",
              "internalType": "uint256"
            }
          ]
        }
      ],
      "stateMutability": "pure"
    },
    {
      "type": "function",
      "name": "encodeMessage",
      "inputs": [
        {
          "name": "parsedMessage",
          "type": "tuple",
          "internalType": "struct WhatTokenBridgeStructs.TransferMessage",
          "components": [
            {
              "name": "payloadID",
              "type": "uint8",
              "internalType": "uint8"
            },
            {
              "name": "recipient",
              "type": "bytes32",
              "internalType": "bytes32"
            },
            {
              "name": "amount",
              "type": "uint256",
              "internalType": "uint256"
            }
          ]
        }
      ],
      "outputs": [
        {
          "name": "encodedMessage",
          "type": "bytes",
          "internalType": "bytes"
        }
      ],
      "stateMutability": "pure"
    },
    {
      "type": "function",
      "name": "feePrecision",
      "inputs": [],
      "outputs": [
        {
          "name": "",
          "type": "uint32",
          "internalType": "uint32"
        }
      ],
      "stateMutability": "view"
    },
    {
      "type": "function",
      "name": "getReceivedMessage",
      "inputs": [
        {
          "name": "hash",
          "type": "bytes32",
          "internalType": "bytes32"
        }
      ],
      "outputs": [
        {
          "name": "recipient",
          "type": "address",
          "internalType": "address"
        },
        {
          "name": "amount",
          "type": "uint256",
          "internalType": "uint256"
        }
      ],
      "stateMutability": "view"
    },
    {
      "type": "function",
      "name": "getRegisteredEmitter",
      "inputs": [
        {
          "name": "emitterChainId",
          "type": "uint16",
          "internalType": "uint16"
        }
      ],
      "outputs": [
        {
          "name": "",
          "type": "bytes32",
          "internalType": "bytes32"
        }
      ],
      "stateMutability": "view"
    },
    {
      "type": "function",
      "name": "isMessageConsumed",
      "inputs": [
        {
          "name": "hash",
          "type": "bytes32",
          "internalType": "bytes32"
        }
      ],
      "outputs": [
        {
          "name": "",
          "type": "bool",
          "internalType": "bool"
        }
      ],
      "stateMutability": "view"
    },
    {
      "type": "function",
      "name": "isPaused",
      "inputs": [],
      "outputs": [
        {
          "name": "",
          "type": "bool",
          "internalType": "bool"
        }
      ],
      "stateMutability": "view"
    },
    {
      "type": "function",
      "name": "isWhitelistEnabled",
      "inputs": [],
      "outputs": [
        {
          "name": "",
          "type": "bool",
          "internalType": "bool"
        }
      ],
      "stateMutability": "view"
    },
    {
      "type": "function",
      "name": "isWhitelisted",
      "inputs": [
        {
          "name": "account",
          "type": "address",
          "internalType": "address"
        }
      ],
      "outputs": [
        {
          "name": "",
          "type": "bool",
          "internalType": "bool"
        }
      ],
      "stateMutability": "view"
    },
    {
      "type": "function",
      "name": "lockAndSend",
      "inputs": [
        {
          "name": "recipient",
          "type": "bytes32",
          "internalType": "bytes32"
        },
        {
          "name": "amount",
          "type": "uint256",
          "internalType": "uint256"
        }
      ],
      "outputs": [
        {
          "name": "messageSequence",
          "type": "uint64",
          "internalType": "uint64"
        }
      ],
      "stateMutability": "nonpayable"
    },
    {
      "type": "function",
      "name": "owner",
      "inputs": [],
      "outputs": [
        {
          "name": "",
          "type": "address",
          "internalType": "address"
        }
      ],
      "stateMutability": "view"
    },
    {
      "type": "function",
      "name": "redeemAndUnlock",
      "inputs": [
        {
          "name": "encodedMessage",
          "type": "bytes",
          "internalType": "bytes"
        }
      ],
      "outputs": [],
      "stateMutability": "nonpayable"
    },
    {
      "type": "function",
      "name": "registerEmitter",
      "inputs": [
        {
          "name": "emitterChainId",
          "type": "uint16",
          "internalType": "uint16"
        },
        {
          "name": "emitterAddress",
          "type": "bytes32",
          "internalType": "bytes32"
        }
      ],
      "outputs": [],
      "stateMutability": "nonpayable"
    },
    {
      "type": "function",
      "name": "relayerFeePercentage",
      "inputs": [],
      "outputs": [
        {
          "name": "",
          "type": "uint32",
          "internalType": "uint32"
        }
      ],
      "stateMutability": "view"
    },
    {
      "type": "function",
      "name": "setWhatTokenAddress",
      "inputs": [
        {
          "name": "whatToken",
          "type": "address",
          "internalType": "address"
        }
      ],
      "outputs": [],
      "stateMutability": "nonpayable"
    },
    {
      "type": "function",
      "name": "whatToken",
      "inputs": [],
      "outputs": [
        {
          "name": "",
          "type": "address",
          "internalType": "address"
        }
      ],
      "stateMutability": "view"
    },
    {
      "type": "function",
      "name": "wormhole",
      "inputs": [],
      "outputs": [
        {
          "name": "",
          "type": "address",
          "internalType": "contract IWormhole"
        }
      ],
      "stateMutability": "view"
    },
    {
      "type": "function",
      "name": "wormholeFinality",
      "inputs": [],
      "outputs": [
        {
          "name": "",
          "type": "uint8",
          "internalType": "uint8"
        }
      ],
      "stateMutability": "view"
    },
    {
      "type": "event",
      "name": "TokensLocked",
      "inputs": [
        {
          "name": "sender",
          "type": "address",
          "indexed": true,
          "internalType": "address"
        },
        {
          "name": "recipient",
          "type": "bytes32",
          "indexed": true,
          "internalType": "bytes32"
        },
        {
          "name": "amount",
          "type": "uint256",
          "indexed": false,
          "internalType": "uint256"
        },
        {
          "name": "normalizedAmount",
          "type": "uint256",
          "indexed": false,
          "internalType": "uint256"
        },
        {
          "name": "sequence",
          "type": "uint64",
          "indexed": false,
          "internalType": "uint64"
        }
      ],
      "anonymous": false
    },
    {
      "type": "event",
      "name": "TokensUnlocked",
      "inputs": [
        {
          "name": "messageHash",
          "type": "bytes32",
          "indexed": true,
          "internalType": "bytes32"
        },
        {
          "name": "recipient",
          "type": "address",
          "indexed": true,
          "internalType": "address"
        },
        {
          "name": "relayer",
          "type": "address",
          "indexed": true,
          "internalType": "address"
        },
        {
          "name": "amount",
          "type": "uint256",
          "indexed": false,
          "internalType": "uint256"
        },
        {
          "name": "relayerFee",
          "type": "uint256",
          "indexed": false,
          "internalType": "uint256"
        }
      ],
      "anonymous": false
    },
    {
      "type": "error",
      "name": "FailedVaaParseAndVerification",
      "inputs": [
        {
          "name": "reason",
          "type": "string",
          "internalType": "string"
        }
      ]
    },
    {
      "type": "error",
      "name": "InsufficientContractBalance",
      "inputs": []
    },
    {
      "type": "error",
      "name": "InvalidAmount",
      "inputs": []
    },
    {
      "type": "error",
      "name": "InvalidEVMAddress",
      "inputs": []
    },
    {
      "type": "error",
      "name": "InvalidMessageLength",
      "inputs": []
    },
    {
      "type": "error",
      "name": "InvalidWormholeFeeAmount",
      "inputs": []
    },
    {
      "type": "error",
      "name": "RecipientZeroAddress",
      "inputs": []
    },
    {
      "type": "error",
      "name": "TransferFailed",
      "inputs": []
    },
    {
      "type": "error",
      "name": "VaaAlreadyClaimed",
      "inputs": []
    },
    {
      "type": "error",
      "name": "WhatTokenZeroAddress",
      "inputs": []
    },
    {
      "type": "error",
      "name": "WormholeZeroAddress",
      "inputs": []
    },
    {
      "type": "error",
      "name": "WrongChainId",
      "inputs": []
    },
    {
      "type": "error",
      "name": "WrongEmitterAddress",
      "inputs": []
    },
    {
      "type": "error",
      "name": "WrongEmitterChainId",
      "inputs": []
    },
    {
      "type": "error",
      "name": "WrongWormholeFinality",
      "inputs": []
    }
  ],
  "bytecode": {
    "object": "0x60806040523480156200001157600080fd5b50604051620017e1380380620017e183398101604081905262000034916200016b565b60016007556001600160a01b0385166200006157604051630a99537b60e01b815260040160405180910390fd5b8361ffff1660000362000086576040516217e1ef60ea1b815260040160405180910390fd5b8260ff16600003620000ab576040516391f32d0b60e01b815260040160405180910390fd5b600080546001600160a01b03191633179055600180546001600160a01b0319166001600160a01b0387161790556001805461ffff60a01b1916600160a01b61ffff8716021790556001805460ff60b01b1916600160b01b60ff8616021790556002805463ffffffff60a01b1916600160a01b63ffffffff8516021790556002805463ffffffff60c01b1916600160c01b63ffffffff8416021790555050505050620001f9565b805163ffffffff811681146200016657600080fd5b919050565b600080600080600060a086880312156200018457600080fd5b85516001600160a01b03811681146200019c57600080fd5b602087015190955061ffff81168114620001b557600080fd5b604087015190945060ff81168114620001cd57600080fd5b9250620001dd6060870162000151565b9150620001ed6080870162000151565b90509295509295909350565b6115d880620002096000396000f3fe608060405234801561001057600080fd5b506004361061012c5760003560e01c806363c09358116100ad5780639a8a0592116100715780639a8a0592146103bf578063b187bd26146103e0578063bca4b0fa146103f2578063bfb3c01014610405578063dc404a0e1461041857600080fd5b806363c093581461034e57806384acd1bb1461037357806385e66df4146103845780638da5cb5b146103995780638fe33b9f146103aa57600080fd5b806335ff1e28116100f457806335ff1e28146102725780633af32abf14610298578063470feb87146102c45780635df52e23146102e7578063634d45b21461031657600080fd5b80630520557b14610131578063184d69ab146101555780631b6e4ab6146101735780631e9b61af146101d857806324816abb14610240575b600080fd5b600154600160b01b900460ff1660405160ff90911681526020015b60405180910390f35b600154600160c01b900460ff165b604051901515815260200161014c565b6101b9610181366004610e42565b600090815260056020908152604091829020825180840190935280546001600160a01b03168084526001909101549290910182905291565b604080516001600160a01b03909316835260208301919091520161014c565b6102336101e6366004610efe565b8051602080830151604080850151905160f89490941b6001600160f81b03191692840192909252602183015260418201526060906061016040516020818303038152906040529050919050565b60405161014c9190610fb0565b61026461024e366004610fd3565b61ffff1660009081526004602052604090205490565b60405190815260200161014c565b600254600160a01b900463ffffffff165b60405163ffffffff909116815260200161014c565b6101636102a6366004610ff0565b6001600160a01b031660009081526003602052604090205460ff1690565b6101636102d2366004610e42565b60009081526006602052604090205460ff1690565b6102fd6102f5366004611019565b600192915050565b60405167ffffffffffffffff909116815260200161014c565b610329610324366004611063565b61042b565b60408051825160ff16815260208084015190820152918101519082015260600161014c565b6002546001600160a01b03165b6040516001600160a01b03909116815260200161014c565b6001546001600160a01b031661035b565b600254600160c01b900463ffffffff16610283565b6000546001600160a01b031661035b565b6103bd6103b8366004611063565b610537565b005b600154600160a01b900461ffff1660405161ffff909116815260200161014c565b600154600160b81b900460ff16610163565b6103bd6104003660046110e3565b61078a565b6103bd610413366004610ff0565b61087a565b610264610426366004610e42565b6108fb565b60408051606081018252600080825260208201819052918101829052906104528382610938565b60ff168083526001146104a05760405162461bcd60e51b81526020600482015260116024820152701a5b9d985b1a59081c185e5b1bd8591251607a1b60448201526064015b60405180910390fd5b6104ab600182611125565b90506104b78382610998565b6020808401919091526104ca9082611125565b90506104d683826109fb565b60408301526104e6602082611125565b9050825181146105315760405162461bcd60e51b81526020600482015260166024820152750d2dcecc2d8d2c840dacae6e6c2ceca40d8cadccee8d60531b6044820152606401610497565b50919050565b600080600061054e6001546001600160a01b031690565b6001600160a01b031663c0fd8bde856040518263ffffffff1660e01b81526004016105799190610fb0565b600060405180830381865afa158015610596573d6000803e3d6000fd5b505050506040513d6000823e601f3d908101601f191682016040526105be919081019061129e565b9250925092508181906105e45760405162461bcd60e51b81526004016104979190610fb0565b506105ee83610a54565b61060b57604051636b99980160e11b815260040160405180910390fd5b600061061a8460e0015161042b565b905061063a84610140015160009081526006602052604090205460ff1690565b156106585760405163032a925360e41b815260040160405180910390fd5b60006106678260200151610a80565b604083015190915060006106836002546001600160a01b031690565b9050600061069082610aaf565b9050600061069e8483610b51565b905060006106ab826108fb565b9050806000036106c5576106c0848784610b89565b6106e4565b6106d0843383610b89565b6106e484876106df84866113f6565b610b89565b6101408a0151604080518481526020810184905233926001600160a01b038a169290917f1705447c4ca6f25bc2e5da6270d2bcffd3fef27675b023c5a76e075e99863699910160405180910390a46101408a0151600090815260056020908152604080832080546001600160a01b0319166001600160a01b038b1617815560019081018690556006909252909120805460ff191690911790555050505050505050505050565b3361079d6000546001600160a01b031690565b6001600160a01b0316146107ea5760405162461bcd60e51b815260206004820152601460248201527331b0b63632b9103737ba103a34329037bbb732b960611b6044820152606401610497565b8161ffff1660000361080f5760405163eae0fb0960e01b815260040160405180910390fd5b600154600160a01b900461ffff1661ffff168261ffff16036108445760405163eae0fb0960e01b815260040160405180910390fd5b8061086257604051630a99537b60e01b815260040160405180910390fd5b61ffff91909116600090815260046020526040902055565b3361088d6000546001600160a01b031690565b6001600160a01b0316146108da5760405162461bcd60e51b815260206004820152601460248201527331b0b63632b9103737ba103a34329037bbb732b960611b6044820152606401610497565b600280546001600160a01b0319166001600160a01b03831617905550565b50565b60025460009063ffffffff600160a01b8204811691600160c01b9004166109289063ffffffff1684611409565b6109329190611420565b92915050565b6000818351116109805760405162461bcd60e51b8152602060048201526013602482015272746f55696e74385f6f75744f66426f756e647360681b6044820152606401610497565b600061098d600184611125565b909301519392505050565b6000806109a6602084611125565b905080845110156109f15760405162461bcd60e51b8152602060048201526015602482015274746f427974657333325f6f75744f66426f756e647360581b6044820152606401610497565b9092015192915050565b600080610a09602084611125565b905080845110156109f15760405162461bcd60e51b8152602060048201526015602482015274746f55696e743235365f6f75744f66426f756e647360581b6044820152606401610497565b60008160800151610a79836060015161ffff1660009081526004602052604090205490565b1492915050565b60006001600160a01b0319821615610aab5760405163e3a39ea160e01b815260040160405180910390fd5b5090565b60408051600481526024810182526020810180516001600160e01b031663313ce56760e01b179052905160009182916001600160a01b03851691610af291611442565b600060405180830381855afa9150503d8060008114610b2d576040519150601f19603f3d011682016040523d82523d6000602084013e610b32565b606091505b5091505080806020019051810190610b4a919061145e565b9392505050565b600060088260ff161115610b8257610b6a60088361147b565b610b7590600a611578565b610b7f9084611409565b92505b5090919050565b604080516001600160a01b038416602482015260448082018490528251808303909101815260649091019091526020810180516001600160e01b031663a9059cbb60e01b179052610bdb908490610be0565b505050565b6000610c35826040518060400160405280602081526020017f5361666545524332303a206c6f772d6c6576656c2063616c6c206661696c6564815250856001600160a01b0316610cb29092919063ffffffff16565b805190915015610bdb5780806020019051810190610c539190611587565b610bdb5760405162461bcd60e51b815260206004820152602a60248201527f5361666545524332303a204552433230206f7065726174696f6e20646964206e6044820152691bdd081cdd58d8d9595960b21b6064820152608401610497565b6060610cc18484600085610cc9565b949350505050565b606082471015610d2a5760405162461bcd60e51b815260206004820152602660248201527f416464726573733a20696e73756666696369656e742062616c616e636520666f6044820152651c8818d85b1b60d21b6064820152608401610497565b600080866001600160a01b03168587604051610d469190611442565b60006040518083038185875af1925050503d8060008114610d83576040519150601f19603f3d011682016040523d82523d6000602084013e610d88565b606091505b5091509150610d9987838387610da4565b979650505050505050565b60608315610e13578251600003610e0c576001600160a01b0385163b610e0c5760405162461bcd60e51b815260206004820152601d60248201527f416464726573733a2063616c6c20746f206e6f6e2d636f6e74726163740000006044820152606401610497565b5081610cc1565b610cc18383815115610e285781518083602001fd5b8060405162461bcd60e51b81526004016104979190610fb0565b600060208284031215610e5457600080fd5b5035919050565b634e487b7160e01b600052604160045260246000fd5b6040516080810167ffffffffffffffff81118282101715610e9457610e94610e5b565b60405290565b604051610160810167ffffffffffffffff81118282101715610e9457610e94610e5b565b604051601f8201601f1916810167ffffffffffffffff81118282101715610ee757610ee7610e5b565b604052919050565b60ff811681146108f857600080fd5b600060608284031215610f1057600080fd5b6040516060810181811067ffffffffffffffff82111715610f3357610f33610e5b565b6040528235610f4181610eef565b8152602083810135908201526040928301359281019290925250919050565b60005b83811015610f7b578181015183820152602001610f63565b50506000910152565b60008151808452610f9c816020860160208601610f60565b601f01601f19169290920160200192915050565b602081526000610b4a6020830184610f84565b61ffff811681146108f857600080fd5b600060208284031215610fe557600080fd5b8135610b4a81610fc3565b60006020828403121561100257600080fd5b81356001600160a01b0381168114610b4a57600080fd5b6000806040838503121561102c57600080fd5b50508035926020909101359150565b600067ffffffffffffffff82111561105557611055610e5b565b50601f01601f191660200190565b60006020828403121561107557600080fd5b813567ffffffffffffffff81111561108c57600080fd5b8201601f8101841361109d57600080fd5b80356110b06110ab8261103b565b610ebe565b8181528560208385010111156110c557600080fd5b81602084016020830137600091810160200191909152949350505050565b600080604083850312156110f657600080fd5b823561110181610fc3565b946020939093013593505050565b634e487b7160e01b600052601160045260246000fd5b808201808211156109325761093261110f565b805161114381610eef565b919050565b805163ffffffff8116811461114357600080fd5b805161114381610fc3565b805167ffffffffffffffff8116811461114357600080fd5b600082601f83011261119057600080fd5b815161119e6110ab8261103b565b8181528460208386010111156111b357600080fd5b610cc1826020830160208701610f60565b600082601f8301126111d557600080fd5b8151602067ffffffffffffffff8211156111f1576111f1610e5b565b6111ff818360051b01610ebe565b82815260079290921b8401810191818101908684111561121e57600080fd5b8286015b84811015611283576080818903121561123b5760008081fd5b611243610e71565b81518152848201518582015260408083015161125e81610eef565b9082015260608281015161127181610eef565b90820152835291830191608001611222565b509695505050505050565b8051801515811461114357600080fd5b6000806000606084860312156112b357600080fd5b835167ffffffffffffffff808211156112cb57600080fd5b9085019061016082880312156112e057600080fd5b6112e8610e9a565b6112f183611138565b81526112ff60208401611148565b602082015261131060408401611148565b60408201526113216060840161115c565b60608201526080830151608082015261133c60a08401611167565b60a082015261134d60c08401611138565b60c082015260e08301518281111561136457600080fd5b6113708982860161117f565b60e083015250610100611384818501611148565b90820152610120838101518381111561139c57600080fd5b6113a88a8287016111c4565b9183019190915250610140838101519082015294506113c96020870161128e565b935060408601519150808211156113df57600080fd5b506113ec8682870161117f565b9150509250925092565b818103818111156109325761093261110f565b80820281158282048414176109325761093261110f565b60008261143d57634e487b7160e01b600052601260045260246000fd5b500490565b60008251611454818460208701610f60565b9190910192915050565b60006020828403121561147057600080fd5b8151610b4a81610eef565b60ff82811682821603908111156109325761093261110f565b600181815b808511156114cf5781600019048211156114b5576114b561110f565b808516156114c257918102915b93841c9390800290611499565b509250929050565b6000826114e657506001610932565b816114f357506000610932565b816001811461150957600281146115135761152f565b6001915050610932565b60ff8411156115245761152461110f565b50506001821b610932565b5060208310610133831016604e8410600b8410161715611552575081810a610932565b61155c8383611494565b80600019048211156115705761157061110f565b029392505050565b6000610b4a60ff8416836114d7565b60006020828403121561159957600080fd5b610b4a8261128e56fea264697066735822122037108f6998cd689fa8980fc2f528cea0ba2464ac6e3ab88adef41fd0a5df497064736f6c63430008130033",
    "linkReferences": {}
  },
  "methodIdentifiers": {
    "calculateRelayerFee(uint256)": "dc404a0e",
    "chainId()": "9a8a0592",
    "decodeMessage(bytes)": "634d45b2",
    "encodeMessage((uint8,bytes32,uint256))": "1e9b61af",
    "feePrecision()": "35ff1e28",
    "getReceivedMessage(bytes32)": "1b6e4ab6",
    "getRegisteredEmitter(uint16)": "24816abb",
    "isMessageConsumed(bytes32)": "470feb87",
    "isPaused()": "b187bd26",
    "isWhitelistEnabled()": "184d69ab",
    "isWhitelisted(address)": "3af32abf",
    "lockAndSend(bytes32,uint256)": "5df52e23",
    "owner()": "8da5cb5b",
    "redeemAndUnlock(bytes)": "8fe33b9f",
    "registerEmitter(uint16,bytes32)": "bca4b0fa",
    "relayerFeePercentage()": "85e66df4",
    "setWhatTokenAddress(address)": "bfb3c010",
    "whatToken()": "63c09358",
    "wormhole()": "84acd1bb",
    "wormholeFinality()": "0520557b"
  },
  "id": 33
}